:020000040800F2
:1000000000000220391F0008211D0008271D0008DC
:100010002D1D0008331D0008391D000800000000D8
:100020000000000000000000000000003F1D00086C
:10003000451D0008000000004B1D0008511D000870
:10004000571D00085D1D0008631D0008691D00089C
:100050006F1D0008751D00087B1D0008811D00082C
:10006000871D00088D1D0008931D0008991D0008BC
:100070009F1D0008A51D0008AB1D0008B11D00084C
:10008000B71D0008BD1D0008C31D0008C91D0008DC
:10009000CF1D0008D51D0008DB1D0008E11D00086C
:1000A000E71D0008ED1D0008F31D0008F91D0008FC
:1000B000FF1D0008051E00080B1E0008111E000889
:1000C000171E00081D1E0008231E0008291E000818
:1000D0002F1E0008B5190008351E00083B1E000839
:1000E000411E0008471E00084D1E0008531E000850
:1000F000591E00085F1E0008651E00086B1E0008E0
:10010000711E0008771E00087D1E0008831E00086F
:10011000891E00088F1E0008951E00089B1E0008FF
:10012000A11E0008A71E0008AD1E0008B31E00088F
:10013000B91E0008BF1E0008C51E0008CB1E00081F
:10014000D11E0008D71E0008DD1E0008E31E0008AF
:10015000E91E0008EF1E0008F51E0008FB1E00083F
:10016000011F0008071F00080D1F0008131F0008CB
:10017000191F00081F1F0008251F000800000000AD
:080180002B1F0008311F0008CD
:1001880010B5054C237833B9044B13B10448AFF3C9
:1001980000800123237010BD7400002000000000BF
:1001A8004C33000808B5034B1BB103490348AFF3B0
:1001B800008008BD00000000780000204C330008D3
:1001C80081F0004102E000BF83F0004330B54FEA00
:1001D80041044FEA430594EA050F08BF90EA020F6D
:1001E8001FBF54EA000C55EA020C7FEA645C7FEA00
:1001F800655C00F0E2804FEA5454D4EB5555B8BF23
:100208006D420CDD2C4480EA020281EA030382EA93
:10021800000083EA010180EA020281EA0303362D25
:1002280088BF30BD11F0004F4FEA01314FF4801CF8
:100238004CEA113102D0404261EB410113F0004F0A
:100248004FEA03334CEA133302D0524263EB4303C1
:1002580094EA050F00F0A780A4F10104D5F1200E5F
:100268000DDB02FA0EFC22FA05F2801841F10001BA
:1002780003FA0EF2801843FA05F359410EE0A5F18E
:1002880020050EF1200E012A03FA0EFC28BF4CF0BF
:10029800020C43FA05F3C01851EBE37101F0004575
:1002A80007D54FF0000EDCF1000C7EEB00006EEB82
:1002B8000101B1F5801F1BD3B1F5001F0CD349080C
:1002C8005FEA30004FEA3C0C04F101044FEA445263
:1002D80012F5800F80F09A80BCF1004F08BF5FEAEA
:1002E800500C50F1000041EB045141EA050130BDCA
:1002F8005FEA4C0C404141EB0101013C28BFB1F5DC
:10030800801FE9D291F0000F04BF01460020B1FA26
:1003180081F308BF2033A3F10B03B3F120020CDAF9
:100328000C3208DD02F1140CC2F10C0201FA0CF0D7
:1003380021FA02F10CE002F11402D8BFC2F1200C3C
:1003480001FA02F120FA0CFCDCBF41EA0C019040F2
:10035800E41AA2BF01EB0451294330BD6FEA04043B
:100368001F3C1CDA0C340EDC04F11404C4F1200226
:1003780020FA04F001FA02F340EA030021FA04F338
:1003880045EA030130BDC4F10C04C4F1200220FA8F
:1003980002F001FA04F340EA0300294630BD21FACD
:1003A80004F0294630BD94F0000F83F4801306BF93
:1003B80081F480110134013D4EE77FEA645C18BF87
:1003C8007FEA655C29D094EA050F08BF90EA020F1E
:1003D80005D054EA000C04BF1946104630BD91EA16
:1003E800030F1EBF0021002030BD5FEA545C05D119
:1003F8004000494128BF41F0004130BD14F5800458
:100408003CBF01F5801130BD01F0004545F0FE41CB
:1004180041F470014FF0000030BD7FEA645C1ABF00
:10042800194610467FEA655C1CBF0B46024650EA37
:10043800013406BF52EA033591EA030F41F4002163
:1004480030BD00BF90F0000F04BF0021704730B5E9
:100458004FF4806404F132044FF000054FF00001BE
:1004680050E700BF90F0000F04BF0021704730B57F
:100478004FF4806404F1320410F0004548BF404254
:100488004FF000013EE700BF42004FEAE2014FEAA9
:1004980031014FEA02701FBF12F07F4393F07F4F84
:1004A80081F06051704732F07F4208BF704793F087
:1004B8007F4F04BF41F40021704730B54FF460749A
:1004C80001F0004521F000411CE700BF50EA01029D
:1004D80008BF704730B54FF000050AE050EA010246
:1004E80008BF704730B511F0004502D5404261EBB6
:1004F80041014FF4806404F132045FEA915C3FF4F7
:10050800D8AE4FF003025FEADC0C18BF03325FEA93
:10051800DC0C18BF033202EBDC02C2F1200300FA44
:1005280003FC20FA02F001FA03FE40EA0E0021FA69
:1005380002F11444BDE600BF70B54FF0FF0C4CF457
:10054800E06C1CEA11541DBF1CEA135594EA0C0F09
:1005580095EA0C0F00F0DEF82C4481EA030621EA44
:100568004C5123EA4C5350EA013518BF52EA03357F
:1005780041F4801143F4801338D0A0FB02CE4FF031
:100588000005E1FB02E506F00042E0FB03E54FF061
:100598000006E1FB03569CF0000F18BF4EF0010E59
:1005A800A4F1FF04B6F5007F64F5407404D25FEA55
:1005B8004E0E6D4146EB060642EAC62141EA555108
:1005C8004FEAC52040EA5E504FEACE2EB4F1FD0C4A
:1005D80088BFBCF5E06F1ED8BEF1004F08BF5FEAC8
:1005E800500E50F1000041EB045170BD06F000467A
:1005F80046EA010140EA020081EA0301B4EB5C0427
:10060800C2BFD4EB0C0541EA045170BD41F480111E
:100618004FF0000E013C00F3AB8014F1360FDEBF43
:10062800002001F0004170BDC4F10004203C35DA1F
:100638000C341BDC04F11404C4F1200500FA05F3A2
:1006480020FA04F001FA05F240EA020001F0004243
:1006580021F0004110EBD37021FA04F642EB0601B9
:100668005EEA430E08BF20EAD37070BDC4F10C04E3
:10067800C4F1200500FA04F320FA05F001FA04F2A7
:1006880040EA020001F0004110EBD37041F1000193
:100698005EEA430E08BF20EAD37070BDC4F120059E
:1006A80000FA05F24EEA020E20FA04F301FA05F206
:1006B80043EA020321FA04F001F0004121FA04F2AE
:1006C80020EA020000EBD3705EEA430E08BF20EA7E
:1006D800D37070BD94F0000F0FD101F000464000B8
:1006E80041EB010111F4801F08BF013CF7D041EA3A
:1006F800060195F0000F18BF704703F0004652003E
:1007080043EB030313F4801F08BF013DF7D043EA0E
:100718000603704794EA0C0F0CEA135518BF95EAC4
:100728000C0F0CD050EA410618BF52EA4306D1D14B
:1007380081EA030101F000414FF0000070BD50EA6A
:10074800410606BF1046194652EA430619D094EAF4
:100758000C0F02D150EA013613D195EA0C0F05D1DE
:1007680052EA03361CBF104619460AD181EA030132
:1007780001F0004141F0FE4141F470014FF00000EA
:1007880070BD41F0FE4141F4780170BD70B54FF085
:10079800FF0C4CF4E06C1CEA11541DBF1CEA135505
:1007A80094EA0C0F95EA0C0F00F0A7F8A4EB0504E7
:1007B80081EA030E52EA03354FEA013100F08880DE
:1007C8004FEA03334FF0805545EA131343EA1263A7
:1007D8004FEA022245EA111545EA10654FEA00265C
:1007E8000EF000419D4208BF964244F1FD0404F515
:1007F800407402D25B084FEA3202B61A65EB030571
:100808005B084FEA32024FF480104FF4002CB6EB2D
:10081800020E75EB030E22BFB61A754640EA0C00AD
:100828005B084FEA3202B6EB020E75EB030E22BFED
:10083800B61A754640EA5C005B084FEA3202B6EB2E
:10084800020E75EB030E22BFB61A754640EA9C00ED
:100858005B084FEA3202B6EB020E75EB030E22BFBD
:10086800B61A754640EADC0055EA060E18D04FEA7B
:10087800051545EA16754FEA06164FEAC30343EA1B
:1008880052734FEAC2025FEA1C1CC0D111F4801FE8
:100898000BD141EA00014FF000004FF0004CB6E7E1
:1008A80011F4801F04BF01430020B4F1FD0C88BF80
:1008B800BCF5E06F3FF6AFAEB5EB030C04BFB6EB8B
:1008C800020C5FEA500C50F1000041EB045170BD7E
:1008D8000EF0004E4EEA113114EB5C04C2BFD4EBAB
:1008E8000C0541EA045170BD41F480114FF0000E2F
:1008F800013C90E645EA060E8DE60CEA135594EAAB
:100908000C0F08BF95EA0C0F3FF43BAF94EA0C0FAD
:100918000AD150EA01347FF434AF95EA0C0F7FF422
:1009280025AF104619462CE795EA0C0F06D152EA76
:1009380003353FF4FDAE1046194622E750EA41065A
:1009480018BF52EA43067FF4C5AE50EA41047FF46B
:100958000DAF52EA43057FF4EBAE12E74FF0FF3CD0
:1009680006E000BF4FF0010C02E000BF4FF0010CA1
:100978004DF804CD4FEA410C7FEA6C5C4FEA430C1A
:1009880018BF7FEA6C5C1BD001B050EA410C0CBF69
:1009980052EA430C91EA030F02BF90EA020F0020CB
:1009A800704710F1000F91EA030F58BF994208BF32
:1009B80090422CBFD8176FEAE37040F001007047EF
:1009C8004FEA410C7FEA6C5C02D150EA013C07D146
:1009D8004FEA430C7FEA6C5CD6D152EA033CD3D091
:1009E8005DF8040B704700BF8446104662468C468B
:1009F8001946634600E000BF01B5FFF7B7FF0028BE
:100A080048BF10F1000F01BD4DF808EDFFF7F4FFE6
:100A18000CBF012000205DF808FB00BF4DF808ED71
:100A2800FFF7EAFF34BF012000205DF808FB00BF94
:100A38004DF808EDFFF7E0FF94BF012000205DF8B6
:100A480008FB00BF4DF808EDFFF7CEFF94BF01206B
:100A580000205DF808FB00BF4DF808EDFFF7C4FF64
:100A680034BF012000205DF808FB00BF4FEA4102B7
:100A780012F5001215D211D56FF47873B3EB6252E8
:100A880012D94FEAC12343F0004343EA505311F00F
:100A9800004F23FA02F018BF404270474FF00000A1
:100AA800704750EA013005D111F0004008BF6FF0DF
:100AB800004070474FF00000704700BF4A0011D255
:100AC80012F5001211D20DD56FF47873B3EB6252A0
:100AD8000ED44FEAC12343F0004343EA505323FAAC
:100AE80002F070474FF00000704750EA013002D121
:100AF8004FF0FF3070474FF00000704780B582B06C
:100B080000AF0121102001F04FFC4FF4C0533B60AF
:100B180001233B710023BB7103237B710123FB710C
:100B28003B461946064801F0B9FA064B01221A60FD
:100B3800054B01221A6000BF0837BD4680BD00BFC3
:100B480000100240B0024242AC02424280B500AFFF
:100B58000F4B1B680E4A23F4400313600C4B1B68B1
:100B68000B4A43F4800313600A4B01221A600A4BB4
:100B780001221A60042000F081FF064B00221A604F
:100B8800042000F07BFF044B00221A6000BF80BDE8
:100B980000100240AC024242B002424280B500AFAF
:100BA8000F4B1B680E4A23F4400313600C4B1B6861
:100BB8000B4A43F4800313600A4B00221A600A4B65
:100BC80000221A60042000F059FF064B01221A6027
:100BD800054B01221A60042000F050FF00BF80BDC1
:100BE80000100240B0024242AC02424280B582B0DC
:100BF80000AF0023FB71164B1B68154A23F4400312
:100C08001360134B124A1B681360124B01221A60BF
:100C1800012000F033FF104B01221A60012000F080
:100C28002DFF09E0FB790133FB71FB79FA2B03D91E
:100C3800FFF7B4FF012307E0084B1B68002BF1D135
:100C4800054B00221A60002318460837BD4680BDB0
:100C580000100240AC024242B00242422C02424220
:100C680080B500AF0F4B00221A600F4B1B680E4A6D
:100C780023F4400313600C4B1B680B4A43F48003B6
:100C880013600A4B00221A60022000F0F7FE054BA1
:100C980001221A60022000F0F1FE024B00221A60C5
:100CA80000BF80BDB002424200100240AC02424286
:100CB80080B500AF0F4B00221A600F4B1B680E4A1D
:100CC80023F4400313600C4B1B680B4A43F4800366
:100CD80013600A4B01221A60022000F0CFFE054B78
:100CE80001221A60022000F0C9FE024B00221A609D
:100CF80000BF80BDB002424200100240AC02424236
:100D080080B584B000AF0346FB711A4B1B68194AC3
:100D180023F440031360174B1B68164A43F48003FF
:100D28001360154B00221A600023FB7319E0FB794E
:100D3800DB09DAB2114B1A60FB795B00FB71022008
:100D480000F09CFE0C4B01221A60022000F096FE77
:100D5800094B00221A60022000F090FEFB7B013351
:100D6800FB73FB7B072BE2D900BF00BF1037BD46E2
:100D780080BD00BF00100240B0024242AC024242B5
:100D880080B584B000AF0346FB710023BB731B4BD7
:100D98001B681A4A23F440031360184B174A1B6850
:100DA80013600023FB7318E0154B00221A60022021
:100DB80000F064FE124B01221A60BB7B5B00BB7320
:100DC800104B1B68002B02D0BB7B0133BB73012087
:100DD80000F054FEFB7B0133FB73FB7B072BE3D94D
:100DE800FB79002B02D1FFF763FF01E0FFF738FF23
:100DF800BB7B18461037BD4680BD00BF00100240BF
:100E0800B00242422C02424280B582B000AF034693
:100E18000A46FB711346BB71FFF798FE8020FFF767
:100E28006FFFFFF7E3FEFB791846FFF769FFFFF74F
:100E3800DDFEBB791846FFF763FFFFF7D7FEFFF724
:100E4800ADFE00BF0837BD4680BD80B584B000AF99
:100E58000346FB71FFF77AFE8020FFF751FFFFF78B
:100E6800C5FEFB791846FFF74BFFFFF7BFFEFFF7FC
:100E78006DFE8120FFF744FFFFF7B8FE0020FFF763
:100E88007FFF0346FB73FFF789FEFB7B184610378D
:100E9800BD4680BD0000000080B586B000AF0346A7
:100EA800FB71FB791B031846FFF7DCFA2DA3D3E986
:100EB8000023FFF741FB02460B462CA1D1E90001B4
:100EC800FFF764FC02460B46C7E904234FF0000213
:100ED800234BD7E90401FFF779F902460B4643ECA7
:100EE800172BB0EE470AF0EE670A01F03DFC53EC11
:100EF800102B10461946FFF7E1FD0346DBB2013B14
:100F0800FB730020FFF7A1FF0346BB7397F90E3070
:100F180003F06F035BB243F010035BB27B737B7B20
:100F280019460020FFF770FFFB7B1946FE20FFF7EC
:100F38006BFFBB7B19460020FFF766FF052000F01A
:100F480009FEBB7B63F05E03DBB219460020FFF7A6
:100F58005BFF00BF1837BD4680BD00BFAFF3008000
:100F68000000E03F48E17A14AE47ED3F0000000082
:100F780084D7774180B582B000AF0346FB710B463A
:100F8800BB8013467B80FB799B00DBB20633DBB268
:100F9800BA88D2B211461846FFF736FFFB799B0094
:100FA800DBB20733DAB2BB881B0A9BB2DBB2194645
:100FB8001046FFF729FFFB790233DBB29B00DBB257
:100FC8007A88D2B211461846FFF71EFFFB799B00BC
:100FD800DBB20933DAB27B881B0A9BB2DBB2194653
:100FE8001046FFF711FF00BF0837BD4680BD00005F
:100FF80080B582B000AF0346FB71FB791846FFF756
:1010080031FA4FF00002124BFFF7C0FB02460B46C5
:10101800104619464FF000020E4BFFF7D7F802466C
:101028000B461046194608A3D3E90023FFF784FAB4
:1010380002460B4610461946FFF718FD03469BB2B9
:1010480018460837BD4680BD9A999999999969407B
:10105800008056400000E03F80B500AF4FF48E722C
:1010680000210020FFF786FF4FF48672002101203F
:10107800FFF780FF40F2171200210220FFF77AFFE6
:101088004FF4967200210320FFF774FF4FF4967215
:1010980000210420FFF76EFF4FF48E720021052017
:1010A800FFF768FF40F2131200210620FFF762FFE6
:1010B8004FF49E7200210720FFF75CFF4FF48E72F9
:1010C80000210820FFF756FF4FF4977200210920EE
:1010D800FFF750FF4FF4877200210A20FFF74AFFFD
:1010E8004FF4877200210B20FFF744FF00BF80BD3B
:1010F80080B594B000AF40F2131200210620FFF72C
:1011080039FF4FF4977200210920FFF733FF582366
:10111800FB645823BB6453237B6444233B644F2301
:10112800FB636123BB6356237B6355233B633F23E8
:10113800FB625823BB62C1E1BB6C442B02DDBB6C74
:10114800013BBB647B6C3E2B02DD7B6C013B7B640B
:101158003B6C542B02DC3B6C02333B64FB6B5F2B18
:1011680002DCFB6B0133FB63BB6B4C2B02DDBB6BFF
:10117800013BBB637B6B492B02DD7B6B023B7B63D3
:101188003B6B452B02DD3B6B023B3B63FB6A532BFE
:1011980002DCFB6A0133FB62BB6A452B02DDBB6ADA
:1011A800023BBB62B86CFFF75DF94FF00002D24B0F
:1011B800FFF7ECFA02460B46104619464FF00002BC
:1011C800CE4BFFF703F802460B4610461946C8A354
:1011D800D3E90023FFF7B0F902460B46104619463B
:1011E800FFF744FC03469BB21A4600210020FFF794
:1011F800C1FE786CFFF736F94FF00002BE4BFFF7DF
:10120800C5FA02460B46104619464FF00002BB4B82
:10121800FEF7DCFF02460B4610461946B4A3D3E995
:101228000023FFF789F902460B4610461946FFF7D7
:101238001DFC03469BB21A4600210120FFF79AFEC7
:10124800386CFFF70FF94FF00002AB4BFFF79EFA2F
:1012580002460B46104619464FF00002A74BFEF710
:10126800B5FF02460B4610461946A1A3D3E9002351
:10127800FFF762F902460B4610461946FFF7F6FBE0
:1012880003469BB21A4600210220FFF773FEF86B53
:10129800FFF7E8F84FF00002974BFFF777FA02469E
:1012A8000B46104619464FF00002944BFEF78EFF8E
:1012B80002460B46104619468DA3D3E90023FFF7D3
:1012C8003BF902460B4610461946FFF7CFFB03468B
:1012D8009BB21A4600210320FFF74CFEB86BFFF7BC
:1012E800C1F84FF00002844BFFF750FA02460B4654
:1012F800104619464FF00002804BFEF767FF024682
:101308000B46104619467AA3D3E90023FFF714F9D0
:1013180002460B4610461946FFF7A8FB03469BB248
:101328001A4600210420FFF725FE786BFFF79AF88C
:101338004FF00002704BFFF729FA02460B461046A1
:1013480019464FF000026D4BFEF740FF02460B4670
:101358001046194666A3D3E90023FFF7EDF80246C5
:101368000B4610461946FFF781FB03469BB21A4607
:1013780000210520FFF7FEFDF86CFFF773F84FF02A
:1013880000025D4BFFF702FA02460B46104619466B
:101398004FF00002594BFEF719FF02460B46104664
:1013A800194653A3D3E90023FFF7C6F802460B46B4
:1013B80010461946FFF75AFB03469BB21A4600210E
:1013C8000720FFF7D7FD386BFFF74CF84FF0000206
:1013D800494BFFF7DBF902460B46104619464FF01A
:1013E8000002464BFEF7F2FE02460B46104619462F
:1013F8003FA3D3E90023FFF79FF802460B461046A8
:101408001946FFF733FB03469BB21A460021082012
:10141800FFF7B0FDF86AFFF725F84FF00002364BEA
:10142800FFF7B4F902460B46104619464FF0000282
:10143800324BFEF7CBFE02460B46104619462CA34C
:10144800D3E90023FFF778F802460B461046194601
:10145800FFF70CFB03469BB21A4600210A20FFF750
:1014680089FDB86AFEF7FEFF4FF00002224BFFF736
:101478008DF902460B46104619464FF000021F4BE5
:10148800FEF7A4FE02460B461046194618A3D3E9F8
:101498000023FFF751F802460B4610461946FFF79E
:1014A800E5FA03469BB21A4600210B20FFF762FDBE
:1014B800142000F04FFBFB6C0133FB64FB6C6C2BBE
:1014C8007FF73AAE6C237B6245233B623F23FB6187
:1014D8005423BB615F237B614D233B614A23FB603F
:1014E8004623BB6053237B6046233B60CAE100BFB1
:1014F8009A99999999996940008056400000E03F6F
:101508003B6A582B02DC3B6A01333B62FB69532B75
:1015180002DCFB690133FB61BB69432B02DDBB695C
:10152800023BBB617B694E2B02DD7B69013B7B6122
:101538003B69612B02DC3B6901333B61FB68562B3D
:1015480002DCFB680233FB60BB68552B02DCBB681E
:101558000233BB607B683E2B02DD7B68013B7B600E
:101568003B68582B02DC3B6802333B60386AFEF765
:1015780079FF4FF00002CA4BFFF708F902460B4605
:10158800104619464FF00002C64BFEF71FFE0246F2
:101598000B4610461946C0A3D3E90023FEF7CCFF3B
:1015A80002460B4610461946FFF760FA03469BB2FF
:1015B8001A4600210020FFF7DDFCF869FEF752FF0C
:1015C8004FF00002B64BFFF7E1F802460B46104613
:1015D80019464FF00002B34BFEF7F8FD02460B46E2
:1015E80010461946ACA3D3E90023FEF7A5FF02462F
:1015F8000B4610461946FFF739FA03469BB21A46BE
:1016080000210120FFF7B6FCB869FEF72BFF4FF069
:101618000002A34BFFF7BAF802460B4610461946DC
:101628004FF000029F4BFEF7D1FD02460B461046D5
:10163800194699A3D3E90023FEF77EFF02460B461D
:1016480010461946FFF712FA03469BB21A460021C4
:101658000220FFF78FFC7869FEF704FF4FF00002C5
:101668008F4BFFF793F802460B46104619464FF08A
:1016780000028C4BFEF7AAFD02460B46104619469F
:1016880085A3D3E90023FEF757FF02460B46104611
:101698001946FFF7EBF903469BB21A4600210320CF
:1016A800FFF768FC3869FEF7DDFE4FF000027C4B5F
:1016B800FFF76CF802460B46104619464FF0000239
:1016C800784BFEF783FD02460B461046194672A377
:1016D800D3E90023FEF730FF02460B4610461946B1
:1016E800FFF7C4F903469BB21A4600210420FFF70E
:1016F80041FCF868FEF7B6FE4FF00002684BFFF7B2
:1017080045F802460B46104619464FF00002654B55
:10171800FEF75CFD02460B46104619465EA3D3E968
:101728000023FEF709FF02460B4610461946FFF74D
:101738009DF903469BB21A4600210520FFF71AFCC3
:10174800786AFEF78FFE4FF00002554BFFF71EF840
:1017580002460B46104619464FF00002514BFEF761
:1017680035FD02460B46104619464BA3D3E9002324
:10177800FEF7E2FE02460B4610461946FFF776F9D9
:1017880003469BB21A4600210720FFF7F3FBB8680F
:10179800FEF768FE4FF00002414BFEF7F7FF0246E6
:1017A8000B46104619464FF000023E4BFEF70EFD61
:1017B80002460B461046194637A3D3E90023FEF725
:1017C800BBFE02460B4610461946FFF74FF9034683
:1017D8009BB21A4600210820FFF7CCFB7868FEF779
:1017E80041FE4FF000022E4BFEF7D0FF02460B469B
:1017F800104619464FF000022A4BFEF7E7FC024656
:101808000B461046194624A3D3E90023FEF794FE9D
:1018180002460B4610461946FFF728F903469BB2C5
:101828001A4600210A20FFF7A5FB3868FEF71AFEC2
:101838004FF000021A4BFEF7A9FF02460B4610466E
:1018480019464FF00002174BFEF7C0FC02460B4644
:101858001046194610A3D3E90023FEF76DFE024691
:101868000B4610461946FFF701F903469BB21A4684
:1018780000210B20FFF77EFB142000F06BF97B6A38
:10188800013B7B627B6A572B3FF73AAE00BF00BF34
:101898005037BD4680BD00BF9A999999999969407A
:1018A800008056400000E03F80B487B000AFF86089
:1018B800B9607A6000237B6100237B6111E000BF7F
:1018C8000D4B1B889BB203F04003002BF8D07B69BB
:1018D800BA6813441A78084B92B29A807B6901332C
:1018E8007B617A697B689A42E9DB7B6818461C371A
:1018F800BD465DF8047B70470010014080B588B094
:1019080000AF0121102000F06FFD0121012000F03F
:101918004BFD07220921234800F04FFC07220A212A
:10192800204800F04AFC02233B774FF4C063BB61B8
:101938000023BB770123FB7703237B7707F1180389
:101948001946184800F0AAFB4FF4E133BB600023A6
:10195800BB820C237B8200233B820023FB81002374
:10196800BB8107F1080319460F4800F05DFD01210E
:101978000D4800F013FE012240F225510A4800F0FC
:101988004FFE25233B710123FB7101237B7101234A
:10199800BB713B1D184600F003FB00BF2037BD4656
:1019A80080BD00BF000002400010014080B500AFBC
:1019B80040F225510A4800F07BFE0346002B0DD06B
:1019C800074800F01DFE0346DAB2064B1A70054BB5
:1019D8001B789BB21946024800F000FE00BF80BD8C
:1019E80000100140A000002080B582B000AF4FF485
:1019F800A06000F0C1FAFFF781FFA82000F01CF8F2
:101A0800FFF77CF800210020FFF7FEF93220FFF7EE
:101A180043FAFFF721FB4FF47A7000F09BF850204F
:101A2800FFF7E6FA0346FB80024800F0BBFFFFF72A
:101A38005FFBF4E7C832000880B582B000AF034608
:101A4800FB716FF0040000F00DFBFB79DB08DAB2E4
:101A5800084B1A70074B1B789BB21A465201D21AD0
:101A680092001344DB009AB2034B1A8000BF083778
:101A7800BD4680BD900000209200002080B485B053
:101A880000AF7860164B1B781946164A7B6803FB33
:101A980001F35360134B00229A60124B1B68114AE2
:101AA80043F0010313600F4B1B68FB60FB6803F0F6
:101AB8000103002B04D0FB6803F48033002BF2D021
:101AC800084B1B68074A23F001031360054B0022EB
:101AD8009A6000BF1437BD465DF8047B704700BFAD
:101AE8009000002010E000E080B485B000AF03460D
:101AF800FB80FB88154A12881146154A01FB03F33F
:101B08005360134B00229A60114B1B68104A43F034
:101B1800010313600E4B1B68FB60FB6803F00103B5
:101B2800002B04D0FB6803F48033002BF2D0084B61
:101B38001B68074A23F001031360054B00229A60D3
:101B480000BF1437BD465DF8047B70479200002043
:101B580010E000E080B584B000AF0346FB80FB884E
:101B6800134AA2FB03235B0A9BB2FB73FB88104A50
:101B7800A2FB0312520A4FF4077101FB02F29B1AEF
:101B8800BB8106E04FF40770FFF7AEFFFB7B013B1C
:101B9800FB73FB7B002BF5D1BB89002B03D0BB89E2
:101BA8001846FFF7A1FF00BF1037BD4680BD00BF34
:101BB80049D6B9F280B500AF164BD3F88830154A2C
:101BC80043F47003C2F88830134B1B68124A43F081
:101BD80001031360104B00229A600F4B1B680E4ADA
:101BE80023F0847323F4803313600B4B0B4A5A6041
:101BF800094B1B68084A23F480231360064B002214
:101C0800DA6000F00DF8034B4FF000629A6000BFF5
:101C180080BD00BF00ED00E0003802401030002415
:101C280080B483B000AF00237B6000233B60364B59
:101C38001B68354A43F480331360334B1B6803F445
:101C480000333B607B6801337B603B68002B03D12A
:101C58007B68B3F5A04FF0D12B4B1B6803F400331E
:101C6800002B02D001233B6001E000233B603B686E
:101C7800012B42D1244B1B6C234A43F0805313643D
:101C8800224B1B68214A43F4404313601E4B1E4AF3
:101C98009B6893601C4B9B681B4A43F4004393600A
:101CA800194B9B68184A43F4A0539360164B184A83
:101CB8005A60154B1B68144A43F08073136000BFC9
:101CC800114B1B6803F00073002BF9D0114B40F245
:101CD80005721A600C4B9B680B4A23F00303936050
:101CE800094B9B68084A43F00203936000BF064B08
:101CF8009B6803F00C03082BF9D100BF0C37BD46D5
:101D08005DF8047B704700BF003802400070004057
:101D180008544007003C0240FFBE704700BFFFBEAA
:101D2800704700BFFFBE704700BFFFBE704700BFCF
:101D3800FFBE704700BFFFBE704700BFFFBE7047C1
:101D480000BFFFBE704700BFFFBE704700BFFFBEA9
:101D5800704700BFFFBE704700BFFFBE704700BF9F
:101D6800FFBE704700BFFFBE704700BFFFBE704791
:101D780000BFFFBE704700BFFFBE704700BFFFBE79
:101D8800704700BFFFBE704700BFFFBE704700BF6F
:101D9800FFBE704700BFFFBE704700BFFFBE704761
:101DA80000BFFFBE704700BFFFBE704700BFFFBE49
:101DB800704700BFFFBE704700BFFFBE704700BF3F
:101DC800FFBE704700BFFFBE704700BFFFBE704731
:101DD80000BFFFBE704700BFFFBE704700BFFFBE19
:101DE800704700BFFFBE704700BFFFBE704700BF0F
:101DF800FFBE704700BFFFBE704700BFFFBE704701
:101E080000BFFFBE704700BFFFBE704700BFFFBEE8
:101E1800704700BFFFBE704700BFFFBE704700BFDE
:101E2800FFBE704700BFFFBE704700BFFFBE7047D0
:101E380000BFFFBE704700BFFFBE704700BFFFBEB8
:101E4800704700BFFFBE704700BFFFBE704700BFAE
:101E5800FFBE704700BFFFBE704700BFFFBE7047A0
:101E680000BFFFBE704700BFFFBE704700BFFFBE88
:101E7800704700BFFFBE704700BFFFBE704700BF7E
:101E8800FFBE704700BFFFBE704700BFFFBE704770
:101E980000BFFFBE704700BFFFBE704700BFFFBE58
:101EA800704700BFFFBE704700BFFFBE704700BF4E
:101EB800FFBE704700BFFFBE704700BFFFBE704740
:101EC80000BFFFBE704700BFFFBE704700BFFFBE28
:101ED800704700BFFFBE704700BFFFBE704700BF1E
:101EE800FFBE704700BFFFBE704700BFFFBE704710
:101EF80000BFFFBE704700BFFFBE704700BFFFBEF8
:101F0800704700BFFFBE704700BFFFBE704700BFED
:101F1800FFBE704700BFFFBE704700BFFFBE7047DF
:101F280000BFFFBE704700BFFFBE704700BF000084
:101F38000C4D0D4C03E02B682360043504340B4B27
:101F48009C42F8D10A4C02E0002323600434094B78
:101F58009C42F9D1FFF72EFE00F08AFCFFF744FD02
:101F6800FEE700BF54330008000000207400002082
:101F780074000020B000002080B483B000AF786007
:101F8800064A7B6843F0BF6343F40033D36000BF65
:101F98000C37BD465DF8047B704700BF00ED00E0DC
:101FA80080B485B000AF78600023FB730023BB7357
:101FB8000F237B737B68DB78002B39D0274BDB68DA
:101FC800DB431B0ADBB203F00703FB73FB7BC3F1A4
:101FD8000403BB737A7BFB7B42FA03F37B737B6856
:101FE8005B781A46BB7B02FA03F3FB737B689A782B
:101FF8007B7B1340DAB2FB7B1343FB73FB7B1B0138
:10200800FB73174A7B681B781344FA7B83F8002319
:102018007B681B7803F01F0311497A68127852090C
:10202800D2B21046012202FA03F341F820300FE041
:102038007B681B7803F01F0309497A6812785209F4
:10204800D2B2104601229A4000F1200341F8232021
:1020580000BF1437BD465DF8047B704700ED00E013
:1020680000E100E080B483B000AF78607B68042BA7
:1020780006D1094B1B68084A43F00403136005E0C6
:10208800054B1B68044A23F00403136000BF0C3798
:10209800BD465DF8047B704710E000E080B487B06F
:1020A80000AF7860396000237B6100233B61002327
:1020B800FB6000237B6176E001227B6902FA03F36F
:1020C8003B613B681B683A691340FB60FA683B69EF
:1020D8009A4265D17B681A687B695B00032101FA23
:1020E80003F3DB431A407B681A607B681A683B6815
:1020F8001B7919467B695B0001FA03F31A437B6875
:102108001A603B681B79012B03D03B681B79022BB3
:102118002ED17B689A687B695B00032101FA03F37F
:10212800DB431A407B689A607B689A683B685B79F6
:1021380019467B695B0001FA03F31A437B689A60CE
:102148007B685A687B699BB2194601238B40DB4345
:102158001A407B685A607B685B683A6892791146D6
:102168007A6992B201FA02F292B21A437B685A6013
:102178007B68DA687B699BB25B00032101FA03F391
:10218800DB431A407B68DA607B68DA683B68DB7996
:1021980019467B695B0001FA03F31A437B68DA602E
:1021A8007B6901337B617B690F2B85D900BF00BF39
:1021B8001C37BD465DF8047B704780B485B000AF1E
:1021C80078600B467B8013467B700023FB600023FE
:1021D800BB607A787B8803F007039B0002FA03F35D
:1021E800FB607B88DB089BB21A467B68083253F891
:1021F80022207B8803F007039B000F2101FA03F3D9
:10220800DB437988C90889B2084602EA03017B687A
:1022180000F1080243F822107B88DB089BB21A46BB
:102228007B68083253F82230FA681343BB607B8816
:10223800DB089BB21A467B680832B96843F822105B
:1022480000BF1437BD465DF8047B704780B489B081
:1022580000AF78600023BB6100237B610023FB6132
:1022680002233B610023FB600223BB604A4B9B684F
:1022780003F00C03BB61BB69082B11D0BB69082BA9
:1022880044D8BB69002B03D0BB69042B04D03DE0C4
:102298007B68424A1A603DE07B68414A1A6039E02F
:1022A8003D4B5B689B0D03F00103FB603A4B5B6899
:1022B80003F03F03BB60FB68002B0CD0384ABB68B7
:1022C800B2FBF3F3344A52689209C2F3080202FBE4
:1022D80003F3FB610BE0314ABB68B2FBF3F32E4A10
:1022E80052689209C2F3080202FB03F3FB612A4B0E
:1022F8005B681B0C03F0030301335B003B61FA6965
:102308003B69B2FBF3F27B681A6003E07B68234AFF
:102318001A6000BF204B9B6803F0F003BB61BB69E8
:102328001B09BB611F4ABB6913441B78DBB27B6185
:102338007B681A687B69DA407B685A60164B9B6831
:1023480003F4E053BB61BB699B0ABB61154ABB69D7
:1023580013441B78DBB27B617B685A687B69DA407F
:102368007B689A600C4B9B6803F46043BB61BB6954
:102378005B0BBB610B4ABB6913441B78DBB27B6107
:102388007B685A687B69DA407B68DA6000BF24376B
:10239800BD465DF8047B7047003802400024F40015
:1023A80000127A000000002080B483B000AF78608B
:1023B8000B46FB70FB78002B06D00A4B1A6B0949B9
:1023C8007B6813430B6306E0064B1A6B7B68DB43A1
:1023D800044913400B6300BF0C37BD465DF8047B0E
:1023E800704700BF0038024080B483B000AF786007
:1023F8000B46FB70FB78002B06D00A4B5A6C094938
:102408007B6813434B6406E0064B5A6C7B68DB43DE
:10241800044913404B6400BF0C37BD465DF8047B8C
:10242800704700BF0038024080B58AB000AF7860BE
:10243800396000237B6200233B620023FB61002399
:10244800BB617B681B8A9BB27B627B6A23F4405327
:102458007B623B68DB881A467B6A13437B627B6A34
:102468009AB27B681A827B689B899BB27B627B6A83
:1024780023F4B05323F00C037B623B689A883B68D3
:102488001B8913439AB23B685B8913439BB21A4674
:102498007B6A13437B627B6A9AB27B689A817B680A
:1024A8009B8A9BB27B627B6A23F440737B623B68A6
:1024B8009B891A467B6A13437B627B6A9AB27B6864
:1024C8009A8207F108031846FFF7C0FE7B68304A76
:1024D800934203D07B682F4A934202D17B693B62C7
:1024E80001E03B693B627B689B899BB21BB2002B76
:1024F8000CDA3A6A13469B0013449A001A443B6864
:102508001B685B00B2FBF3F3FB610BE03A6A13460E
:102518009B0013449A001A443B681B689B00B2FB5B
:10252800F3F3FB61FB691C4AA2FB03235B091B0154
:102538007B627B6A1B09642202FB03F3FA69D31AE4
:10254800BB617B689B899BB21BB2002B0CDABB6911
:10255800DB003233104AA2FB03235B0903F00703B5
:102568007A6A13437B620BE0BB691B0132330A4A68
:10257800A2FB03235B0903F00F037A6A13437B6210
:102588007B6A9AB27B681A8100BF2837BD4680BD36
:1025980000100140001401401F85EB5180B483B046
:1025A80000AF78600B46FB70FB78002B08D07B6887
:1025B8009B899BB243F400539AB27B689A8107E0E7
:1025C8007B689B899BB223F400539AB27B689A81FB
:1025D80000BF0C37BD465DF8047B704780B483B0FC
:1025E80000AF78600B467B807B88C3F308039AB200
:1025F8007B689A8000BF0C37BD465DF8047B704746
:1026080080B483B000AF78607B689B889BB2C3F3CB
:1026180008039BB218460C37BD465DF8047B70472B
:1026280080B487B000AF78600B467B8013467B7020
:1026380000233B610023FB600023BB6000237B6118
:102648007B687B617B88DBB25B09DBB23B617B88A3
:1026580003F01F03FB600122FB6802FA03F3BB606F
:102668003B69012B03D17B690C337B6109E03B6932
:10267800022B03D17B6910337B6102E07B69143341
:102688007B617B78002B06D07B6919687B69BA6807
:102698000A431A6006E07B691968BB68DA437B69FC
:1026A8000A401A6000BF1C37BD465DF8047B7047BE
:1026B80080B487B000AF78600B467B800023FB6056
:1026C80000237B610023BB600023FB747B88DBB2A3
:1026D8005B09DBB2BB607B8803F01F037B610122CF
:1026E8007B6902FA03F37B61BB68012B07D17B6826
:1026F8009B899BB21A467B6913407B6111E0BB68DA
:10270800022B07D17B681B8A9BB21A467B69134050
:102718007B6106E07B689B8A9BB21A467B69134003
:102728007B617B881B0A9BB2FB600122FB6802FA73
:1027380003F3FB607B681B889BB21A46FB68134057
:10274800FB607B69002B05D0FB68002B02D00123BE
:10275800FB7401E00023FB74FB7C18461C37BD4664
:102768005DF8047B7047000051EC100BF8B5C1F31D
:102778000A53A3F2FF35132D10EE106A0C4620DC25
:10278800002D3DDB384F2F4101EA070303431DD0DD
:1027980033A3D3E90023FDF719FD00220023FEF738
:1027A8005BF948B1002C04DA4FF4801343FA05F5BD
:1027B8002C4424EA070400262346324643EC102B17
:1027C800F8BD332D05DDB5F5806F29D041EC100B30
:1027D800F8BDA3F213434FF0FF37DF400742F5D0AF
:1027E8001FA3D3E90023FDF7F1FC00220023FEF725
:1027F80033F90028E0D0002C23DB26EA0706DBE7C4
:1028080017A3D3E90023FDF7E1FC00220023FEF71C
:1028180023F90028D0D0002C0ADB00263446CBE769
:1028280010EE102A0B46FDF7D1FC41EC100BF8BD59
:1028380024F000430D4A1E43002E18BF14460026FC
:10284800BAE7142D08D00123C5F1340503FA05F5BC
:10285800AE1928BFE418D0E70134CEE7AFF3008003
:102868009C7500883CE4377EFFFF0F000000F0BF36
:1028780070B50D4D0D4C641BA4100026A64209D15D
:102888000B4D0C4C00F052FD641BA4100026A64210
:1028980005D170BD55F8043B98470136EEE755F869
:1028A800043B98470136F2E74C3300084C330008E4
:1028B8004C3300085033000802440346934200D1C9
:1028C800704703F8011BF9E770B50E46054618B1C5
:1028D80083690BB900F048FAAB69AC6813B92846AC
:1028E80000F042FA2C4B9C4220D16C68636EDB07E7
:1028F80005D4A389980502D4A06D00F0D3FAA38962
:1029080019071DD52369DBB1013EA36816F8011F1D
:10291800013BA36039BB002B38DA22460A2128463E
:1029280000F048F8013011D00A2511E01B4B9C42F9
:1029380001D1AC68DAE71A4B9C4208BFEC68D5E7CE
:102948002146284600F088F80028DDD04FF0FF35F2
:10295800636EDA0705D4A3899B0502D4A06D00F045
:10296800A2FA284670BD002B04DAA2699A4206DC56
:102978000A2904D023685A1C22601970C5E7224628
:10298800284600F017F80130BFD1DFE723680A2591
:102998005A1C22601D70DBE7F4320008143300086B
:1029A800D4320008024B01461868FFF78DBF00BFFC
:1029B80010000020F8B50E461446054618B1836984
:1029C8000BB900F0D1F9214B9C422BD16C68A3695B
:1029D800A360A3891A072FD523696BB323692068DD
:1029E800C01A6369F6B28342374604DC214628469A
:1029F80000F026F930BBA368013BA36023685A1C8A
:102A080022601E7063690130834204D0A389DB070A
:102A180006D50A2E04D12146284600F011F988B9B6
:102A28003846F8BD0A4B9C4201D1AC68CFE7094B48
:102A38009C4208BFEC68CAE72146284600F00CF81B
:102A48000028CBD04FF0FF37EAE700BFF432000888
:102A580014330008D4320008324B70B51D6806469E
:102A68000C4625B1AB6913B9284600F07DF92E4B09
:102A78009C420FD16C68A389B4F90C2019072CD497
:102A8800DD0611D40923336042F04003A3814FF0DF
:102A9800FF303EE0254B9C4201D1AC68EBE7244B6C
:102AA8009C4208BFEC68E6E7580712D5616B41B154
:102AB80004F14403994202D0304600F059FA002349
:102AC8006363A38923F02403A3810023636023693C
:102AD8002360A38943F00803A38123694BB9A38921
:102AE80003F42073B3F5007F03D02146304600F08D
:102AF800FFF9A089B4F90C2010F001030AD00023D3
:102B0800A36063695B42A361236943B910F0800045
:102B1800BAD170BD810758BF6369A360F4E700208C
:102B2800F7E700BF10000020F43200081433000853
:102B3800D43200088A892DE9F041054610070C4671
:102B480058D44B68002B05DC0B6C002B02DC0020F2
:102B5800BDE8F081E66A002EF9D0002312F4805215
:102B68002F682B6032D0606DA3895A0705D563683A
:102B7800C01A636B0BB1236CC01A00230246E66AC5
:102B8800216A2846B047431CA38906D129681D2914
:102B98002CD82A4ACA40D60728D500226260D90410
:102BA8002269226004D5421C01D12B6803B96065F3
:102BB800616B2F600029CAD004F14403994202D006
:102BC800284600F0D5F900206063C1E7216A012397
:102BD8002846B047411CC7D12B68002BC4D01D2BF9
:102BE80001D0162B01D12F60B1E7A38943F0400330
:102BF800A381ADE70F69002FA9D093070E6808BF1E
:102C08004B690F6018BF0023A6EB07088B60B8F16B
:102C1800000F9CDD216AA66A43463A462846B0471B
:102C2800002806DCA38943F04003A3814FF0FF305E
:102C38008EE70744A8EB0008E9E700BF0100402041
:102C480038B50B6905460C4613B90025284638BD2A
:102C580018B183690BB900F087F8144B9C421BD15B
:102C68006C68B4F90C30002BEFD0626ED00704D436
:102C7800990502D4A06D00F015F928462146FFF702
:102C880059FF636EDA070546E0D4A3899B05DDD4B6
:102C9800A06D00F008F9D9E7054B9C4201D1AC685A
:102CA800DFE7044B9C4208BFEC68DAE7F43200081F
:102CB80014330008D4320008002310B50446C0E9D4
:102CC8000033C0E90433836081814366C281836134
:102CD800194608225C30FFF7EFFD054B6362054B90
:102CE800A362054BE362054B2462236310BD00BF5A
:102CF800ED3000080F310008473100086B3100083B
:102D0800014900F0AFB800BF492C000870B54A1E51
:102D1800682555430E4605F1740100F079F904461B
:102D280040B10021C0E900160C30A06005F168022E
:102D3800FFF7C2FD204670BD014800F0B3B800BFE0
:102D4800A9000020014800F0AEB800BFA90000208B
:102D5800014800F0A7B800BFA4000020014800F017
:102D6800A2B800BFA400002010B50446FFF7F0FF8A
:102D7800A3691BB1BDE81040FFF7F0BFC4E91233E7
:102D88002365134B134A1B68A262A34204BF0123A5
:102D9800A361204600F020F86060204600F01CF88F
:102DA800A060204600F018F80022E0600421606866
:102DB800FFF782FFA06801220921FFF77DFFE06885
:102DC80002221221FFF778FF0123A361D2E700BF97
:102DD800D0320008092D0008F8B50746FFF7ACFF08
:102DE8001E4B1E68B36913B93046FFF7BDFF48365E
:102DF800D6E90134013B03D533680BB33668F7E7EE
:102E0800B4F90C50D5B9164BE36004F15800656667
:102E180000F047F8FFF796FFC4E90155C4E90455E7
:102E28002560A5610822294604F15C00FFF744FDEE
:102E3800C4E90D55C4E912552046F8BD6834D9E7F0
:102E480004213846FFF762FF044630600028D5D1D8
:102E5800FFF778FF0C233B60EEE700BFD032000895
:102E68000100FFFF2DE9F8430646884600F14804B3
:102E78000027D4E90195B9F1010905D52468002C8A
:102E8800F7D13846BDE8F883AB89012B07D9B5F9E6
:102E98000E30013303D029463046C0470743683512
:102EA800E9E770477047704770B50E46B1F90E10E4
:102EB800002996B014461D4607DA00232B60B38913
:102EC8001A0610D44FF480630EE06A4600F070F9D9
:102ED8000028F2DB019A02F47042A2F500535A422C
:102EE8005A412A60EEE740230020236016B070BDE7
:102EF8008B8973B59D0706460C4607D504F1470331
:102F0800236023610123636102B070BD01AB6A468F
:102F1800FFF7CAFF00990546304600F079F848B92E
:102F2800B4F90C309A05EFD423F0030343F00203FD
:102F3800A381E3E70D4BB362A389206043F08003CC
:102F4800A381009B6361019B20615BB1B4F90E1002
:102F5800304600F03FF928B1A38923F0030343F07A
:102F68000103A381A0890543A581CDE7092D0008A8
:102F780037B5002948D051F8043C0190002BA1F145
:102F88000404B8BFE41800F047F9204A0198136810
:102F9800154633B96360146003B0BDE8304000F0F3
:102FA80041B9A3420BD921686218934204BF1A6839
:102FB8005B68636004BF521822602C60ECE71A4615
:102FC8005B680BB1A342FAD911685518A5420BD119
:102FD800246821445418A3421160DDD11C685B6841
:102FE800536021441160D7E702D90C230360D3E76B
:102FF800256861198B4204BF19685B68636004BF68
:10300800491921605460C7E703B030BD940000201F
:10301800F8B5CD1C25F0030508350C2D38BF0C2557
:10302800002D064601DBA94203D90C23336000209A
:10303800F8BD00F0F1F821490A6814469CB9204F00
:103048003B6823B92146304600F03CF838602946F1
:10305800304600F037F8431C23D10C233360304648
:1030680000F0E0F8E3E723685B1B17D40B2B03D9C8
:1030780023601C44256004E06368A2420CBF0B6017
:103088005360304600F0CEF804F10B00231D20F009
:103098000700C21ACCD01B1AA350C9E7224664689D
:1030A800CCE7C41C24F00304A042E3D0211A304624
:1030B80000F008F80130DDD1CFE700BF9400002010
:1030C8009800002038B5064D0023044608462B60BA
:1030D80000F0E8F8431C02D12B6803B1236038BD27
:1030E800AC00002010B50C46B1F90E1000F0A0F8A5
:1030F8000028ABBF636DA3891B1823F48053ACBFB2
:103108006365A38110BD2DE9F0411F468B89DB055E
:1031180005460C46164605D5B1F90E1002230022C5
:1031280000F068F8A389B4F90E1023F48053A38142
:1031380032463B462846BDE8F04100F017B810B5C6
:103148000C46B1F90E1000F055F8431CA38915BFC1
:10315800606523F4805343F48053A38118BFA3818F
:1031680010BDB1F90E1000F013B8000038B5074DC6
:1031780004460846114600222A601A46FEF794FBC8
:10318800431C02D12B6803B1236038BDAC0000207A
:1031980038B5064D0023044608462B6000F05AF85F
:1031A800431C02D12B6803B1236038BDAC0000205A
:1031B80038B5074D00230446084611462B6000F039
:1031C80051F8431C02D12B6803B1236038BD00BFFE
:1031D800AC00002038B5064D0023044608462B6095
:1031E80000F048F8431C02D12B6803B1236038BDB6
:1031F800AC00002038B5074D0446084611460022A9
:103208002A601A4600F03EF8431C02D12B6803B12D
:10321800236038BDAC0000200148FFF743BE00BF63
:10322800A50000200148FFF73EBE00BFA500002012
:1032380038B5074D04460846114600222A601A464A
:1032480000F028F8431C02D12B6803B1236038BD75
:10325800AC000020024B58221A604FF0FF30704734
:10326800AC000020024B58221A604FF0FF30704724
:10327800AC000020024B58221A600020704700BFA3
:10328800AC000020024B58221A604FF0FF30704704
:10329800AC000020024B58221A604FF0FF307047F4
:1032A800AC000020044A05491368002B08BF0B46F0
:1032B80018441060184670479C000020B000002099
:1032C80068656C6C6F0D00001400002000000000A1
:1032D80000000000000000000000000000000000E6
:1032E80000000000000000000000000000000000D6
:1032F80000000000000000000000000000000000C6
:1033080000000000000000000000000000000000B5
:1033180000000000000000000000000000000000A5
:10332800000000000000000000000000F8B500BF29
:10333800F8BC08BC9E467047F8B500BFF8BC08BC8E
:043348009E467047E6
:04334C00AD010008C7
:0433500089010008E7
:103354000000000001020304010203040607080937
:103364001400002000000000F432000814330008A8
:10337400D43200080000000000000000000000003B
:103384000000000000000000000000000000000039
:103394000000000000000000000000000000000029
:1033A4000000000000000000000000000000000019
:1033B4000000000000000000000000000000000009
:0433C4000000000005
:0400000508001F3997
:00000001FF
